:100000000C942A000C9447000C9447000C94470071
:100010000C94BF000C9447000C9447000C944700CC
:100020000C9447000C9447000C9447000C94470034
:100030000C9447000C9484010C9447000C944700E6
:100040000C9447000C9447000C9447000C94470014
:100050000C94470011241FBECFE5D8E0DEBFCDBF12
:1000600010E0A0E6B0E0E6EAF6E002C005900D92EE
:10007000AE3DB107D9F710E0AEEDB0E001C01D9282
:10008000A63FB107E1F70E940E020C9451030C94B5
:1000900000009B01AC0160E271EA87E090E00E9401
:1000A000C402215010BC29B98AB180698AB980B5CF
:1000B000866880BD08955F9BFECF8CB10895AC012A
:1000C00020E030E05F9BFECF8CB1FA01E20FF31F1E
:1000D00080832F5F3F4F28303105A1F708958BBBF8
:1000E000C298C198C09A80E29EE4FC013197F1F772
:1000F000C0980197F1F7089587B3876087BB8FEFAA
:100100008ABB88EE93E028EC30E0F9013197F1F7F3
:100110000197D9F788E30E946F008CE00E946F007E
:1001200086E00E946F0081E00E946F0080E80E94DC
:100130006F0008958BBBC29AC198C09A82E08A95DD
:10014000F1F7C09880ED97E00197F1F70895CF930C
:10015000DF93EC0102C00E949A0089918823D9F7AD
:10016000DF91CF91089581E00E946F0080E80E94A6
:100170006F00089512BEBB9A8BE683BF08951F924D
:100180000F920FB60F9211248F938091DE008F5F34
:100190008093DE008F31E9F48091E0008F5F8093DF
:1001A000E0008C33A1F41092E0008091E1008F5FB9
:1001B0008093E1008C3359F48091E2008F5F80934B
:1001C000E2001092E1008D3010F01092E2001092E7
:1001D000DE008F910F900FBE0F901F90189514BCEA
:1001E0008AEF83BD89B7806889BF8FE885BD089590
:1001F000CF92DF92EF92FF920F931F93DF93CF93F3
:10020000CDB7DEB729970FB6F894DEBF0FBECDBFCE
:100210008091E00090E06E010894C11CD11CB601F1
:100220004AE050E00E94180384E0E82EF12CEC0E26
:10023000FD1E8091E10090E0B7014AE050E00E948D
:1002400018038E01095F1F4F8091E20090E0B80112
:100250004AE050E00E9418031B821E82198680EC3F
:100260000E946F0080E690E00E94A700C8010E94F3
:10027000A70089E690E00E94A700C7010E94A7009E
:1002800089E690E00E94A700C6010E94A700809125
:10029000E2008C3019F48BE690E002C080E790E039
:1002A0000E94A70029960FB6F894DEBF0FBECDBFFF
:1002B000CF91DF911F910F91FF90EF90DF90CF9042
:1002C00008950E94B30085E790E00E94A7008EEE9B
:1002D00090E00E94A7008FE790E00E94A700809125
:1002E000F2000E949A0082E890E00E94A7008091AC
:1002F000F4008C3421F48FE890E00E94A7008BEE8C
:1003000090E00E94A70008951F920F920FB60F92DF
:1003100011242F933F934F935F936F937F938F930A
:100320009F93AF93BF93EF93FF930E94B30082E933
:1003300090E00E94A70083EE90E00E945F0081E0C1
:100340008093DF00FF91EF91BF91AF919F918F91CB
:100350007F916F915F914F913F912F910F900FBEC1
:100360000F901F9018950F931F930E94B3008091D8
:10037000EA008534E1F42091E3002233C0F4203315
:10038000B0F00091E600063411F0023481F490914F
:10039000E700953360F4943321F48091E8008633CC
:1003A00030F41091E900123581F01C3471F08DEABF
:1003B00090E00E94A70088E893E128EC30E0F90182
:1003C0003197F1F70197D9F724C02093EE0080917F
:1003D000E4008093EF008091E5008093F00010929C
:1003E000F1009093EB008091E8008093EC00109274
:1003F000ED008EEE90E00E94FA028093F5000093EB
:10040000F2008BEE90E00E94FA028093F3001093CA
:10041000F4000E94B3001F910F9108958F929F9254
:10042000AF92BF92CF92DF92EF92FF920F931F9302
:10043000DF93CF93CDB7DEB729970FB6F894DEBF21
:100440000FBECDBF789414BC8AEF83BD89B7806896
:1004500089BF8FE885BD0E947C0060E875E280E07E
:1004600090E00E94490084B38F6384BB85B3807C95
:1004700085BB12BEBB9A8BE683BF8AEB90E00E94DD
:10048000A700DE011196E5EDF0E089E001900D9204
:100490008150E1F710E00FEF67E0862E912C5E01AE
:1004A0000894A11CB11C50E4E52E5CE9F52E42E055
:1004B000C42ED12CCC0EDD1E01C010E08091DF00D7
:1004C000882381F00E94B3018091F500809FC001D4
:1004D000112464E670E00E94B1026CBF0E946101C9
:1004E0001092DF000E94F8008091F200823419F42B
:1004F000A898A99A04C0863411F4A89AA998809162
:10050000F400823561F48091F3008823B9F28150C0
:100510008093F30025B3F601E10FF11D0FC08C3479
:1005200069F68091F300882349F281508093F300AB
:1005300025B3F401E11BF109EA0DFB1D808190E078
:100540008F709070880F991F880F991F237C282B1C
:1005500025BBC7010197F1F7173009F4AECF1F5F34
:10056000ADCF97FB092E07260AD077FD04D02ED0F9
:1005700006D000201AF4709561957F4F0895F6F724
:10058000909581959F4F0895A1E21A2EAA1BBB1B3F
:10059000FD010DC0AA1FBB1FEE1FFF1FA217B3074F
:1005A000E407F50720F0A21BB30BE40BF50B661F65
:1005B000771F881F991F1A9469F760957095809529
:1005C00090959B01AC01BD01CF010895AA1BBB1BF7
:1005D00051E107C0AA1FBB1FA617B70710F0A61B43
:1005E000B70B881F991F5A95A9F780959095BC0164
:1005F000CD010895FC0188279927E89421912032A4
:10060000E9F3293010F02E30C8F32B3241F02D32AF
:1006100039F4689404C00E943903820F911D21911E
:1006200020532A30C0F31EF4909581959F4F089572
:10063000FB019F01E8944230C4F04532B4F44A30E3
:1006400029F497FB1EF4909581959F4F642F77278F
:100650000E94E602805D8A330CF0895D8193CB01B4
:100660000097A1F716F45DE251931082C9010C9432
:1006700041037AE0979F902D879F802D910D112443
:100680000895DC01FC01672F71917723E1F7329720
:1006900004C07C916D9370836291AE17BF07C8F35D
:0606A0000895F894FFCF5D
:1006A600202054696D653A20003A002020504D0004
:1006B6002020414D00202053706565643A200025B6
:1006C60020002020446972656374696F6E3A0020C9
:1006D6002D00506C6561736520656E7465722063CC
:1006E6006F727265637420696E7075740057726FED
:1006F6006E6720496E7075742100202057656C6303
:100706006F6D6520746F20746865204D61696E2079
:0E0716004D656E75000602030109080C04060D
:00000001FF
